:020000040800F2
:1000000000500020E5010008790200088102000884
:10001000890200089102000899020008000000000F
:10002000000000000000000000000000A102000825
:10003000A902000800000000B1020008B90200088F
:1000400071020008710200087102000871020008C4
:1000500071020008710200087102000871020008B4
:10006000710200087102000871020008B91000084E
:100070007913000809130008B91100084911000894
:100080002912000899120008710200087102000884
:100090007102000871020008710200087102000874
:1000A0007102000871020008710200087102000864
:1000B0007102000871020008710200087102000854
:1000C0007102000871020008710200087102000844
:1000D00071020008C91600082517000881170008DA
:1000E0007102000871020008710200087102000824
:1000F0007102000871020008710200087102000814
:100100007102000871020008710200087102000803
:10011000DD17000839180008710200087102000894
:100120007102000871020008E5130008710200085E
:1001300000000000000000000000000000000000BF
:1001400000000000000000000000000000000000AF
:10015000000000000000000000000000000000009F
:10016000000000000000000000000000000000008F
:10017000000000000000000000000000000000007F
:10018000000000000000000000000000000000006F
:10019000000000000000000000000000000000005F
:1001A000000000000000000000000000000000004F
:1001B000000000000000000000000000000000003F
:1001C000000000000000000000000000000000002F
:1001D000000000000000000000000000000000001F
:1001E0005FF8E0F180B584B000AF0D4BBB600D4B04
:1001F0007B60BB683B6004E03B681A1D3A600022EC
:100200001A607A683B689A42F6D800F0F7FD01F070
:1002100009FFF86000F028FEF86800F0E9FD00BF73
:1002200054080020D408002080B584B000AF0D4BE6
:10023000FB600D4BBB600D4B7B60BB683B6007E018
:100240003B681A1D3A60FA68111DF96012681A605D
:100250007A683B689A42F3D800F024FE1037BD4616
:1002600080BD00BFFC2A00080000002054080020C8
:1002700080B400AFFEE700BF80B400AFFEE700BF70
:1002800080B400AFFEE700BF80B400AFFEE700BF60
:1002900080B400AFFEE700BF80B400AFFEE700BF50
:1002A00080B400AFFEE700BF80B400AFFEE700BF40
:1002B00080B400AFFEE700BF80B400AFFEE700BF30
:1002C000FC2A00080000002054080020FC2A000836
:1002D000000000000000000054080020D4080020A6
:1002E0000000000000000000F8B500BFF8BC08BC2A
:1002F0009E467047F8B500BFF8BC08BC9E467047E4
:1003000029020008412700083503000811030008EE
:1003100010B5054C237833B9044B13B10448AFF33F
:1003200000800123237010BD54080020000000004D
:10033000F82A0008084B10B51BB108480849AFF36C
:1003400000800848036803B910BD074B002BFBD0A1
:10035000BDE81040184700BF00000000F82A000860
:1003600058080020540800200000000080B584B028
:1003700000AF7860144B1B68002B02D1124B134A5C
:100380001A60114B1B68FB607B68033323F0030387
:100390007B600D4B1A687B6813440D4A934207D962
:1003A00001F0A6FE02460C2313604FF0FF3306E077
:1003B000054B1A687B681344034A1360FB681846B0
:1003C0001037BD4680BD00BF70080020D408002053
:1003D000004C002080B487B000AF786000237B61C0
:1003E00000233B610F23FB607B68DB78002B3AD056
:1003F000274BDB68DB4303F4E0631B0A7B617B690B
:10040000C3F104033B617B69FA6822FA03F3FB60E2
:100410007B685B781A463B6902FA03F37B617B6871
:100420009B781A46FB6813407A6913437B617B69AA
:100430001B017B61174A7B681B787969C9B2134439
:100440000A4683F80023134A7B681B785B09DBB2FA
:1004500018467B681B7803F01F03012101FA03F3A0
:1004600042F820300FE00B497B681B785B09DBB258
:1004700018467B681B7803F01F0301229A4000F1A5
:10048000200341F823201C37BD465DF8047B7047EC
:1004900000ED00E000E100E080B483B000AF7860E0
:1004A0007B681A684FF6FE7313407A6813607B68A6
:1004B00000221A607B6800225A607B6800229A60E2
:1004C0007B680022DA607B68434A934206D1434A44
:1004D000424B5B6843F00F03536077E07B68404A10
:1004E000934206D13D4A3D4B5B6843F0F0035360B5
:1004F0006CE07B683B4A934206D1384A374B5B68D5
:1005000043F47063536061E07B68374A934206D1DD
:10051000324A324B5B6843F47043536056E07B6869
:10052000324A934206D12D4A2C4B5B6843F4702328
:1005300053604BE07B682E4A934206D1274A274BF3
:100540005B6843F47003536040E07B68294A934240
:1005500006D1224A214B5B6843F07063536035E05B
:100560007B68254A934206D1244A244B5B6843F0BA
:100570000F0353602AE07B68214A934206D11F4A49
:100580001E4B5B6843F0F00353601FE07B681D4A1D
:10059000934206D1194A194B5B6843F47063536068
:1005A00014E07B68184A934206D1144A134B5B68E7
:1005B00043F47043536009E07B68144A934205D1C9
:1005C0000E4A0E4B5B6843F4702353600C37BD46F4
:1005D0005DF8047B704700BF080002400000024045
:1005E0001C0002403000024044000240580002401B
:1005F0006C000240800002400804024000040240F7
:100600001C040240300402404404024058040240EA
:1006100080B485B000AF786039600023FB607B68F0
:100620001B68FB60FB6823F4FF4323F07003FB604F
:100630003B689A683B681B6A1A433B681B691A430C
:100640003B685B691A433B689B691A433B68DB69FB
:100650001A433B685B6A1A433B689B6A1343FA6818
:100660001343FB607B68FA681A603B68DA687B6852
:100670005A603B681A687B689A603B685A687B6876
:10068000DA601437BD465DF8047B704780B483B0F0
:1006900000AF78600B46FB70FB78002B06D07B68C0
:1006A0001B6843F001027B681A6006E07B681A68E9
:1006B0004FF6FE7313407A6813600C37BD465DF841
:1006C000047B704780B485B000AFF860B960134612
:1006D000FB71FB79002B06D0FB681A68BB681A43D4
:1006E000FB681A6006E0FB681A68BB68DB431A40C7
:1006F000FB681A601437BD465DF8047B704700BF85
:1007000080B483B000AF78607B6803F08053002B27
:1007100003D0064A7B68536002E0054A7B68536059
:100720000C37BD465DF8047B704700BF00040240F3
:100730000000024080B489B000AF786039600023C7
:10074000FB6100233B610023BB610023FB600023AE
:100750007B610023BB603B68DB7803F00F03FB6128
:100760003B68DB7803F01003002B05D03B689B78D7
:100770001A46FB691343FB613B681B88DBB2002B05
:1007800044D07B681B687B610023BB6138E0BB6998
:10079000012202FA03F3FB603B681B881A46FB68E0
:1007A00013403B613A69FB689A4226D1BB699B00C2
:1007B000FB60FB680F2202FA03F3BB60BB68DB43FC
:1007C0007A6913407B61FB68FA6902FA03F37A697C
:1007D00013437B613B68DB78282B05D1BB69012281
:1007E0009A407B685A6108E03B68DB78482B04D16B
:1007F000BB6901229A407B681A61BB690133BB6106
:10080000BB69072BC3D97B687A691A603B681B8870
:10081000FF2B4AD97B685B687B610023BB613EE0AC
:10082000BB6908331A4601239340FB603B681B8871
:100830001A46FB6813403B613A69FB689A422BD128
:10084000BB699B00FB60FB680F2202FA03F3BB60ED
:10085000BB68DB437A6913407B61FB68FA6902FA83
:1008600003F37A6913437B613B68DB78282B07D15C
:10087000BB6908331A46012303FA02F27B685A6106
:100880003B68DB78482B07D1BB6908331A46012344
:1008900003FA02F27B681A61BB690133BB61BB6971
:1008A000072BBDD97B687A695A602437BD465DF84D
:1008B000047B704780B487B000AF78600B46FB7054
:1008C00000233B610023FB6000237B610023BB60AE
:1008D0007B68002B03DA2E4BDB697B6102E02C4B3B
:1008E0005B687B617B6803F470231B0CBB607B68D7
:1008F0009BB23B617B6803F44013B3F5401F0AD100
:100900007B6923F070637B61214A214B5B6823F094
:100910007063536021E07B6803F48013002B0ED0DA
:10092000BB68032202FA03F3FB60FB68DB437A69CE
:1009300013407B617B6943F070637B610DE07B68F2
:100940005B0D1B011A463B699340DB437A691340F8
:100950007B617B6943F070637B61FB78002B08D07F
:100960007B685B0D1B011A463B6993407A69134310
:100970007B617B68002B03DA054A7B69D36102E067
:10098000034A7B6953601C37BD465DF8047B7047A2
:100990000000014080B487B000AF786000237B6125
:1009A00000233B610023FB600023BB604D4B5B6871
:1009B00003F00C037B617B69042B07D0082B09D063
:1009C000002B34D17B68484A1A6034E07B68464A81
:1009D0001A6030E0434B5B6803F470133B61414B9A
:1009E0005B6803F48033FB603B699B0C02333B6123
:1009F000FB68002B06D13B693C4A02FB03F27B6893
:100A00001A6013E0374B5B6803F40033002B06D009
:100A10003B69364A02FB03F27B681A6006E03B69D9
:100A2000314A02FB03F27B681A6004E003E07B6852
:100A30002D4A1A6000BF2B4B5B6803F0F0037B610B
:100A40007B691B097B612A4A7B6913441B78DBB2F3
:100A5000BB607B681A68BB68DA407B685A60214BD0
:100A60005B6803F4E0637B617B691B0A7B61204A5E
:100A70007B6913441B78DBB2BB607B685A68BB6838
:100A8000DA407B689A60174B5B6803F460537B61C4
:100A90007B69DB0A7B61164A7B6913441B78DBB2F6
:100AA000BB607B685A68BB68DA407B68DA600D4BD4
:100AB0005B6803F440437B617B699B0B7B610D4A60
:100AC0007B6913441B78DBB2BB607B68DA68BB6868
:100AD000B2FBF3F27B681A611C37BD465DF8047BFC
:100AE000704700BF0010024000127A0000093D006C
:100AF000000000201000002080B483B000AF7860B8
:100B00000B46FB70FB78002B06D00949084B5A694D
:100B10007B6813434B6106E00549054B5A697B68C6
:100B2000DB4313404B610C37BD465DF8047B7047D7
:100B30000010024080B483B000AF78600B46FB70B9
:100B4000FB78002B06D00949084B9A697B68134350
:100B50008B6106E00549054B9A697B68DB431340CE
:100B60008B610C37BD465DF8047B70470010024076
:100B700080B483B000AF78600B46FB70FB78002B2D
:100B800006D00949084BDA697B681343CB6106E05C
:100B90000549054BDA697B68DB431340CB610C37B1
:100BA000BD465DF8047B70470010024080B58CB0F4
:100BB00000AF786039600023FB620023BB62002332
:100BC0007B6200233B620023FB617B68FB617B68E7
:100BD0001B8A9BB2FB62FA6A4CF6FF731340FB62FE
:100BE0003B68DB881A46FB6A1343FB62FB6A9AB2D6
:100BF0007B681A827B689B899BB2FB62FA6A4EF61D
:100C0000F3131340FB623B689A883B681B891343CC
:100C10009AB23B685B8913439BB21A46FB6A134343
:100C2000FB62FB6A9AB27B689A817B689B8A9BB263
:100C3000FB62FA6A4FF6FF431340FB623B689B89F5
:100C40001A46FB6A1343FB62FB6A9AB27B689A827C
:100C500007F108031846FFF79DFEFB692E4A9342F1
:100C600002D17B69BB6201E03B69BB627B689B8907
:100C70009BB29BB21BB2002B0CDABA6A13469B00E4
:100C800013449A001A443B681B685B00B2FBF3F301
:100C90007B620BE0BA6A13469B0013449A001A4425
:100CA0003B681B689B00B2FBF3F37B627B6A1B4AC9
:100CB000A2FB03235B091B01FB62FB6A1B09642285
:100CC00002FB03F37A6AD31A3B627B689B899BB26F
:100CD0009BB21BB2002B0CDA3B6ADB0032330F4AAB
:100CE000A2FB03235B0903F00703FA6A1343FB62C9
:100CF0000BE03B6A1B013233084AA2FB03235B096A
:100D000003F00F03FA6A1343FB62FB6A9AB27B6833
:100D10001A813037BD4680BD003801401F85EB5138
:100D200080B483B000AF78600B46FB70FB78002B7B
:100D300008D07B689B899BB243F400539AB27B68CE
:100D40009A8107E07B689B899BB223F400539AB297
:100D50007B689A810C37BD465DF8047B704700BF05
:100D600080B487B000AF78600B467B8013467B7001
:100D700000233B610023FB600023BB6000237B61F9
:100D80007B687B617B88DBB25B09DBB23B617B8884
:100D900003F01F03FB60FB68012202FA03F3BB6050
:100DA0003B69012B03D17B690C337B6109E03B6913
:100DB000022B03D17B6910337B6102E07B69143322
:100DC0007B617B78002B06D07B697A691168BA68F1
:100DD0000A431A6006E07B697A691168BA68D243EF
:100DE0000A401A601C37BD465DF8047B704700BF9F
:100DF00080B483B000AF7860FEE700BF80B582B0FA
:100E000000AF154A154BD31A9B103B6000237B6043
:100E100007E0124A7B6852F8233098477B68013319
:100E20007B607A683B689A42F3D30D4A0D4BD31A24
:100E30009B103B6000237B6007E00A4A7B6852F806
:100E4000233098477B6801337B607A683B689A421D
:100E5000F3D30837BD4680BD040300080003000833
:100E60000C0300080403000880B582B000AF0B4AF1
:100E70000B4BD31A9B103B603B687B6008E07B68A0
:100E8000013B074A52F8233098477B68013B7B605F
:100E90007B68002BF3D10837BD4680BD10030008E6
:100EA0000C03000880B500AF154A154B1B6843F0D2
:100EB000010313601249124B5A68124B13404B60E6
:100EC0000F4A0F4B1B6823F0847323F480331360A5
:100ED0000B4A0B4B1B6823F480231360084A084B12
:100EE0005B6823F4FE035360054B4FF41F029A60C6
:100EF00000F00CF8044B4FF000629A6080BD00BF18
:100F0000001002400000FFF800ED00E080B500AFE7
:100F100000F002F880BD00BF80B483B000AF0023B2
:100F20007B6000233B603A4A394B1B6843F48033B3
:100F30001360374B1B6803F400333B607B6801335D
:100F40007B603B68002B03D17B68B3F5A06FF0D1C9
:100F50002F4B1B6803F40033002B02D001233B60AE
:100F600001E000233B603B68012B4BD1294A294B10
:100F70001B6843F010031360264A264B1B6823F0BE
:100F800003031360234A234B1B6843F002031360DF
:100F90001F4A1F4B5B6853601D4A1D4B5B685360C3
:100FA0001B4A1B4B5B6843F480635360184A184B21
:100FB0005B6823F47C135360154A154B5B6843F45C
:100FC000E8135360124A124B1B6843F0807313609E
:100FD00000BF0F4B1B6803F00073002BF9D00C4AC5
:100FE0000B4B5B6823F003035360094A084B5B68B3
:100FF00043F00203536000BF054B5B6803F00C0332
:10100000082BF9D10C37BD465DF8047B704700BF53
:10101000001002400020024080B588B000AF786028
:1010200007F108031846FFF7B5FCFB680B4AA2FB63
:1010300003239B0B7A6802FB03F3FB6102E0FB696D
:10104000013BFB61FB69002B14BF01230023DBB2D2
:10105000002BF4D12037BD4680BD00BF5917B7D152
:1010600080B582B000AF7860786801F047F8034639
:1010700018460837BD4680BD80B582B000AF7860A5
:10108000786801F03BF8034618460837BD4680BD36
:1010900080B582B000AF7860786801F037F8083723
:1010A000BD4680BD80B582B000AF7860786801F041
:1010B0002DF80837BD4680BD80B500AF204B1B68BA
:1010C00003F00203002B14BF01230023DBB2002B2B
:1010D00014D01B4B02225A601A4B1B681B680C333E
:1010E0001B68184A126810469847164B1B681B6805
:1010F00014331B68134A126810469847104B1B683C
:1011000003F00403002B14BF01230023DBB2002BE8
:1011100014D00B4B04225A600A4B1B681B6808331F
:101120001B68084A126810469847064B1B681B68E4
:1011300010331B68034A12681046984780BD00BFF1
:10114000000002407408002080B500AF184B1B68F7
:1011500003F40033002B14BF01230023DBB2002B68
:101160000CD0134B4FF400325A60124B1B681B68B3
:101170000C331B680F4A1268104698470C4B1B68CB
:1011800003F48023002B14BF01230023DBB2002BC8
:101190000CD0074B4FF480225A60064B1B681B682B
:1011A00008331B68034A12681046984780BD00BF89
:1011B000000002407808002080B500AF184B1B6883
:1011C00003F40053002B14BF01230023DBB2002BD8
:1011D0000CD0134B4FF400525A60124B1B681B6823
:1011E00014331B680F4A1268104698470C4B1B6853
:1011F00003F48043002B14BF01230023DBB2002B38
:101200000CD0074B4FF480425A60064B1B681B689A
:1012100010331B68034A12681046984780BD00BF10
:10122000000002407808002080B500AF184B1B6812
:1012300003F40013002B14BF01230023DBB2002BA7
:101240000CD0134B4FF400125A60124B1B681B68F2
:101250000C331B680F4A1268104698470C4B1B68EA
:1012600003F48003002B14BF01230023DBB2002B07
:101270000CD0074B4FF480025A60064B1B681B686A
:1012800008331B68034A12681046984780BD00BFA8
:10129000000002407C08002080B500AF184B1B689E
:1012A00003F00073002B14BF01230023DBB2002BDB
:1012B0000CD0134B4FF000725A60124B1B681B6826
:1012C00014331B680F4A1268104698470C4B1B6872
:1012D00003F08063002B14BF01230023DBB2002B3B
:1012E0000CD0074B4FF080625A60064B1B681B689E
:1012F00010331B68034A12681046984780BD00BF30
:10130000000002407C08002080B500AF184B1B682D
:1013100003F40073002B14BF01230023DBB2002B66
:101320000CD0134B4FF400725A60124B1B681B68B1
:101330000C331B680F4A1268104698470C4B1B6809
:1013400003F48063002B14BF01230023DBB2002BC6
:101350000CD0074B4FF480625A60064B1B681B6829
:1013600008331B68034A12681046984780BD00BFC7
:10137000000002408008002080B500AF174B1B68BA
:1013800003F02003002B14BF01230023DBB2002B4A
:101390000BD0124B20225A60114B1B681B68143370
:1013A0001B680F4A1268104698470C4B1B6803F0E5
:1013B0004003002B14BF01230023DBB2002B0BD012
:1013C000064B40225A60064B1B681B6810331B6893
:1013D000034A12681046984780BD00BF00000240D3
:1013E0007808002080B500AF174B1A68174B1340E0
:1013F000002B14BF01230023DBB2002B0BD0124BB8
:10140000124A5A60124B1B681B680C331B68104A47
:101410001268104698470C4B1A680E4B1340002B6D
:1014200014BF01230023DBB2002B0BD0064B094A6B
:101430005A60074B1B681B6808331B68044A126814
:101440001046984780BD00BF000402400002001013
:10145000840800200004001080B483B000AF7860DE
:101460007B68044A1A607B6818460C37BD465DF8F5
:10147000047B7047582A000880B582B000AF7860BE
:101480007B68064A1A600023002B02D07868FFF7B9
:10149000FFFD7B6818460837BD4680BD582A000806
:1014A00080B582B000AF78607868FFF7E5FF7868B4
:1014B000FFF7EEFD7B6818460837BD4680BD00BFCC
:1014C00080B582B000AF78600B46FB707B68FA781D
:1014D00083F83420FB78012B02D0022B1DD039E099
:1014E0001E4A7B68136001200121FFF705FB7B6822
:1014F0000B2283F830207B68002283F831207B6840
:10150000002283F832207B68012283F833207B6835
:1015100030331846FEF75EFF1CE0114A7B6813600B
:1015200001200121FFF7E8FA7B680C2283F83020C4
:101530007B68002283F831207B68002283F8322008
:101540007B68012283F833207B6830331846FEF72E
:1015500041FF00BF0837BD4680BD00BF74080020B2
:101560007808002080B483B000AF78600C37BD46A7
:101570005DF8047B704700BF80B483B000AF786033
:101580000C37BD465DF8047B704700BF80B483B064
:1015900000AF78600C37BD465DF8047B704700BF34
:1015A00080B485B000AF78600023FB601437BD467F
:1015B0005DF8047B704700BF80B584B000AFF86071
:1015C000B9607A603B60FB6893F83430012B02D03D
:1015D000022B39D071E03A48FEF75EFF7A68FB686B
:1015E0005A60BA68FB689A60FB681022DA603A6851
:1015F000FB681A61FB6880229A61FB6840225A618D
:10160000FB680022DA61FB6800221A62FB68002294
:101610005A62FB684FF480529A62FB684FF4804232
:10162000DA62FB68043326481946FEF7F1FF06200C
:10163000FFF766F822480E210122FFF743F8204801
:101640000121FFF723F838E01E48FEF725FF7A68EE
:10165000FB685A60BA68FB689A60FB681022DA601F
:101660003A68FB681A61FB6880229A61FB68402235
:101670005A61FB680022DA61FB6800221A62FB688B
:1016800000225A62FB684FF480529A62FB684FF462
:101690008042DA62FB6804330A481946FEF7B8FF55
:1016A0000620FFF72DF807480E210122FFF70AF860
:1016B00004480121FEF7EAFF00BF1037BD4680BD98
:1016C000080002401C00024080B582B000AF134BFE
:1016D0001B889BB203F02003002B14BF01230023BF
:1016E000DBB2002B16D00D4A0C4B1B889BB223F0AB
:1016F00020039BB21380094B9B889BB2FB71084B64
:101700001B681B6808331B68054A1168FA7908468C
:10171000114698470837BD4680BD00BF00380140DC
:101720008808002080B582B000AF134B1B889BB2A5
:1017300003F02003002B14BF01230023DBB2002B96
:1017400016D00D4A0C4B1B889BB223F020039BB292
:101750001380094B9B889BB2FB71084B1B681B686D
:1017600008331B68054A1168FA79084611469847FC
:101770000837BD4680BD00BF004400408C080020F3
:1017800080B582B000AF134B1B889BB203F02003DF
:10179000002B14BF01230023DBB2002B16D00D4A0F
:1017A0000C4B1B889BB223F020039BB21380094B88
:1017B0009B889BB2FB71084B1B681B6808331B6836
:1017C000054A1168FA790846114698470837BD4618
:1017D00080BD00BF004800409008002080B582B066
:1017E00000AF134B1B889BB203F02003002B14BFE8
:1017F00001230023DBB2002B16D00D4A0C4B1B88B3
:101800009BB223F020039BB21380094B9B889BB2B1
:10181000FB71084B1B681B6808331B68054A11687D
:10182000FA790846114698470837BD4680BD00BF83
:10183000004C00409408002080B582B000AF134BEC
:101840001B889BB203F02003002B14BF012300234D
:10185000DBB2002B16D00D4A0C4B1B889BB223F039
:1018600020039BB21380094B9B889BB2FB71084BF2
:101870001B681B6808331B68054A1168FA7908461B
:10188000114698470837BD4680BD00BF0050004054
:101890009808002080B584B000AFF8600B467A60ED
:1018A000FB72FB68A84A1A60FB683033184600F0E8
:1018B000EDFAFB68FA7A83F82620FB68002283F8A9
:1018C0002420FB68002283F82520FB6893F826304B
:1018D000DBB2042B20D801A252F823F0F118000843
:1018E000F918000801190008091900081119000861
:1018F000964AFB6813600FE0954AFB6813600BE0A3
:10190000944AFB68136007E0934AFB68136003E0A6
:10191000924AFB68136000BFFB6893F82630DBB285
:10192000042B00F2CE8101A252F823F041190008E5
:10193000FD190008A11A0008751B00081D1C0008ED
:1019400008200121FFF7F6F84FF480400121FFF74E
:10195000F1F801200121FFF7EDF804200121FEF745
:10196000A9FF02200121FEF7A5FFFB6840229A8211
:10197000FB6803229A75FB681822DA75FB6814333A
:1019800077481946FEF7D6FEFB6880229A82FB68EC
:101990000422DA75FB68143371481946FEF7CAFE53
:1019A0007A68FB685A60FB6800221A81FB68002293
:1019B0005A81FB6800229A81FB6800221A82FB6828
:1019C0000C22DA81FB68043366481946FFF7EEF80B
:1019D00064480121FFF7A4F9624840F22551012231
:1019E000FFF7BEF9FB6825221A76FB680122DA763A
:1019F000FB6818331846FEF7EDFC63E10520012172
:101A0000FFF798F84FF400300121FFF7B1F8FB68B9
:101A100004229A82FB6803229A75FB681822DA7501
:101A2000FB68143350481946FEF784FEFB68082211
:101A30009A82FB680422DA75FB6814334A48194617
:101A4000FEF778FE7A68FB685A60FB6800221A810C
:101A5000FB6800225A81FB6800229A81FB68002201
:101A60001A82FB680C22DA81FB6804333F4819466E
:101A7000FFF79CF83D480121FFF752F93B4840F23F
:101A800025510122FFF76CF9FB6826221A76FB68C4
:101A90000122DA76FB6818331846FEF79BFC11E149
:101AA00009200121FFF746F84FF480200121FFF7BC
:101AB0005FF8FB684FF480629A82FB6803229A7594
:101AC000FB681822DA75FB68143325481946FEF7BF
:101AD00031FEFB684FF400629A82FB680422DA75DB
:101AE000FB6814331E481946FEF724FE7A68FB682B
:101AF0005A60FB6800221A81FB6800225A81FB6849
:101B000000229A81FB6800221A82FB680C22DA818B
:101B1000FB68043316481946FFF748F814480121BA
:101B2000FFF7FEF8124840F225510122FFF718F99D
:101B3000FB6827221A76FB680122DA76FB681833E5
:101B40001846FEF747FCBDE0782A00088808002008
:101B50008C0800209008002094080020980800209D
:101B6000000C0140003801400008014000440040E2
:101B70000048004011200121FEF7DCFF4FF4002057
:101B80000121FEF7F5FFFB684FF480629A82FB6843
:101B900003229A75FB681822DA75FB6814334C48E7
:101BA0001946FEF7C7FDFB684FF400629A82FB6896
:101BB0000422DA75FB68143345481946FEF7BAFD6E
:101BC0007A68FB685A60FB6800221A81FB68002271
:101BD0005A81FB6800229A81FB6800221A82FB6806
:101BE0000C22DA81FB6804333A481946FEF7DEFF1F
:101BF00038480121FFF794F8364840F22551012278
:101C0000FFF7AEF8FB6834221A76FB680122DA7619
:101C1000FB6818331846FEF7DDFB53E03120012145
:101C2000FEF788FF4FF480100121FEF7A1FFFB684B
:101C30004FF480529A82FB6803229A75FB6818223F
:101C4000DA75FB68143322481946FEF773FDFB680A
:101C500004229A82FB680422DA75FB6814331E485A
:101C60001946FEF767FD7A68FB685A60FB68002238
:101C70001A81FB6800225A81FB6800229A81FB6866
:101C800000221A82FB680C22DA81FB6804331348B5
:101C90001946FEF78BFF11480121FFF741F80F4865
:101CA00040F225510122FFF75BF8FB6835221A76D6
:101CB000FB680122DA76FB6818331846FEF78AFBC8
:101CC00000E000BFFB6818461037BD4680BD00BF6E
:101CD00000100140004C0040001401400050004042
:101CE00080B582B000AF78607B68094A1A607B6873
:101CF0003033184600F0E0F80023002B02D078685B
:101D0000FFF7C6F97B6818460837BD4680BD00BF9F
:101D1000782A000880B582B000AF78607868FFF755
:101D2000DFFF7868FFF7B4F97B6818460837BD46CF
:101D300080BD00BF80B584B000AFF860B9607A6044
:101D400002E00120FFF768F9FB6893F82430DAB26B
:101D5000FB6893F82530DBB29A4207D17B68013BE0
:101D60007B607B68002B01D0012300E00023002B67
:101D7000E7D17B68002B1FD0FB68DA69FB6893F81A
:101D80002530DBB2591CC8B2F96881F8250013442C
:101D90001A78BB681A70FB6893F82530DBB21F2BEA
:101DA0008CBF01230023DBB2002B03D0FB68002291
:101DB00083F82520012300E0002318461037BD4694
:101DC00080BD00BF80B483B000AF78600B46FB706D
:101DD0007B68DA697B6893F82430DBB2591CC8B29F
:101DE000796881F824001344FA781A707B6893F8B4
:101DF0002430DBB21F2B8CBF01230023DBB2002B6E
:101E000003D07B68002283F824200C37BD465DF8A0
:101E1000047B704780B483B000AF78600C37BD4658
:101E20005DF8047B704700BF80B584B000AF786078
:101E300039603B6807F10F02786811461A46FFF7D0
:101E400079FF0346002B1CD07B6803F13002FB7B3B
:101E50001046194600F05EF807E07B6803F1300297
:101E6000FB7B1046194600F055F807F10F03786820
:101E700019461922FFF75EFF0346002BEDD101231F
:101E800000E0002318461037BD4680BD80B483B003
:101E900000AF78607B68074A1A607B6800229A600E
:101EA0007B6800225A607B6818460C37BD465DF897
:101EB000047B7047982A000880B582B000AF786034
:101EC0007B680B4A1A607B685B68002B04D07B68D8
:101ED0005B681846FFF7E6F80023002B02D078680D
:101EE000FFF7D6F87B6818460837BD4680BD00BFAF
:101EF000982A000880B582B000AF78607868FFF754
:101F0000DBFF7868FFF7C4F87B6818460837BD46E2
:101F100080BD00BF80B584B000AF78600B46FB7019
:101F20007B685B68002B10D10120FFF7A5F8024603
:101F30007B685A607B685A687B689B68581C796824
:101F400088601344FA781A7039E07B689B681846F9
:101F5000FFF792F8F8607B685A687B689B68F868BE
:101F600011461A4600F060FB7B685B68002B04D0CA
:101F70007B685B681846FFF795F87B689B680133C0
:101F80001846FFF779F802467B685A607B685A6802
:101F90007B689B681046F9681A4600F045FBFB68B1
:101FA000002B02D0F868FFF77DF87B685A687B68E1
:101FB0009B68581C796888601344FA781A70103747
:101FC000BD4680BD80B584B000AFF8600B467A6036
:101FD000FB72FA68FB7A104619467A68FFF75AFCDA
:101FE000FB6840331846FFF737FAFB68044A1A606B
:101FF000FB68044A1A64FB6818461037BD4680BD6A
:10200000B82A0008D82A000880B483B000AF7860EE
:102010000C37BD465DF8047B704700BFA0F140005F
:10202000F2E700BF90B58BB000AF7820FFF718F84B
:102030000446204600214FF41652FFF7C3FF3C62CE
:102040000D4BFB613820FFF70BF804462046FFF7E5
:1020500003FABC61B8690221FFF732FA3B46B8695E
:10206000F9691A460A23FFF7A7FA00237B627B6A05
:1020700001337B62FBE700BFA02A000880B582B075
:1020800000AF78607B680C4A1A607B680B4A1A6460
:102090007B6840331846FFF7EFF97B681846FFF777
:1020A0001FFE0023002B02D07868FEF7F1FF7B684B
:1020B00018460837BD4680BDB82A0008D82A00084F
:1020C000A0F14000FFF7DABF80B582B000AF7860C2
:1020D0007868FFF7D3FF7868FEF7DAFF7B68184669
:1020E0000837BD4680BD00BFA0F14000ECE700BF4F
:1020F000014B1868704700BF40040020024B0146A6
:10210000186800F00BB800BF40040020024B0146E5
:10211000186800F073BB00BF400400202DE9F04FA9
:1021200001F10B05162D83B0064627D935F00705BA
:1021300000F1B680A94200F2B38000F0EBFAB5F5E9
:10214000FC7F22D2BC4FE80807EBC003DC689C424E
:1021500000F0BC816368E16823F0030323445A68FC
:10216000A56842F00102E96030468D605A6000F0D7
:10217000D3FA0834204603B0BDE8F08F102900F2EE
:102180008F8000F0C7FA1025DCE7680A00F08F8026
:10219000042800F24781A80938304100A64F07EB18
:1021A0008101CC68A14206D10CE0002A80F2828035
:1021B000E468A14206D0636823F003035A1B0F2A88
:1021C000F3DD013801309C493C6901F1080E74458A
:1021D00000F07181636823F003035A1B0F2A00F398
:1021E0005781002AC1F814E0C1F810E066DAB3F5AF
:1021F000007F80F02D81DB0801EBC3084FEAA30CC0
:102200004A68012303FA0CF3D8F808C01343C4F852
:1022100008C0C4F80C804B60C8F80840CCF80C40EB
:102220008210012494409C4255D8234206D120F0CC
:1022300003006400234200F10400FAD007EBC00859
:10224000C4468146DCF80C309C4507D135E10029B5
:1022500080F24581DB689C4500F02F815A6822F0AE
:102260000302511B0F29F2DD1C46DA6854F808CF2F
:1022700045F0010941F001081D44C3F804903046BF
:10228000CCF80C20C2F808C07D613D61C5F80CE0B7
:10229000C5F808E0C5F80480695000F03DFA69E728
:1022A000002420460C23336003B0BDE8F08F7E216C
:1022B0003F2073E723445A68E16851E723445A6892
:1022C000304642F001025A60083400F025FA2046F8
:1022D00003B0BDE8F08FBC68636823F00308454590
:1022E00004D8C5EB08030F2B00F38C80534BDFF8A9
:1022F0005CA11A68DAF800302A44013304EB080BB9
:1023000000F0518102F580520F3222F47F6222F0F8
:102310000F0211463046019200F000FAB0F1FF3F83
:102320008146019A00F04881834500F2EF80444BDA
:10233000CB4519681144196000F04381DAF80000B8
:10234000DFF808E101301BBFCBEB090B5944CEF895
:102350000090196019F0070100F00881C1F1080030
:10236000C1F58051814408314A44C2F30B02C2EBEB
:10237000010A51463046019300F0D0F9431C019BFD
:1023800000F02D81C9EB0002524442F001021968AD
:10239000BC425144C7F808901960C9F80420DFF81E
:1023A000A0A016D0B8F10F0F40F2EF806268A8F13C
:1023B0000C0323F0070302F00102E0184FF0050EB2
:1023C0001A430F2B6260C0F804E0C0F808E000F286
:1023D0000A811C4BBC681A68914288BF19601A4B6D
:1023E0001A689142626888BF196022F00302954220
:1023F000A2EB050301D80F2B04DC304600F08CF96A
:102400000024B7E645F0010243F001032544626071
:102410003046BD6008346B6000F07EF9204603B0A2
:10242000BDE8F08F142869D9542800F29880280B51
:102430006E304100B2E600BF44040020A408002032
:10244000A8080020A00800209C08002050080020B8
:102450005A0A042A55D9142A00F2A7805B324FEA9F
:10246000420C07EB8C0CDCF80810DFF8B8816145F2
:102470007FD04A6822F00302934202D289688C45D9
:10248000F7D1CA687B68E260A1609460CC60C7E65F
:1024900045F0010742F001032544676030464D6175
:1024A0000D61C5F80CE0C5F808E06B60AA5008346F
:1024B00000F032F95EE64B68B2E609F1010919F065
:1024C000030F0CF1080C7FF4BDAE2CE004F10803FF
:1024D0006469A34208BF02303FF475AE3AE61C4679
:1024E0001A445168DB6854F8085F41F001015160FB
:1024F0003046EB609D6000F00FF93BE65B30410039
:102500004CE69A0938324FEA420CAAE7BC42454BE6
:102510003FF40DAF9C68626822F0030267E7D8F8C9
:10252000008098457CD110F0030FA8F1080300F15A
:10253000FF30F4D17B6823EA04037B6064009C4293
:102540003FF6C9AE002C3FF4C6AE234248467FF4A6
:1025500075AE6400234200F10400FAD06EE6B0F5D7
:10256000AA7F18D8E80B7730410017E64FF4805166
:10257000FAE6D8F8043092104FF0010C0CFA02F28F
:102580001343C8F804300A467DE70123C9F8043034
:102590004C4600222BE740F2545398421CD8A80C1A
:1025A0007C304100FAE51032B3E6542A23D81A0BE6
:1025B0006E324FEA420C54E7BC68626822F00302B4
:1025C00015E7CBF30B0000287FF4B8AE4244BB689C
:1025D00042F001025A60FCE6FC217E20DEE5012289
:1025E0004FF0000AD3E604F10801304600F006F986
:1025F000DAF80010EDE6B2F5AA7F04D8DA0B7732EC
:102600004FEA420C2DE740F254518A4204D89A0C0A
:102610007C324FEA420C24E74FF0FC0C7E2220E78C
:102620007B688BE744040020844641EA000313F0F2
:10263000030349D1403A23D30B6803604B684360DE
:102640008B688360CB68C3600B6903614B6943612E
:102650008B698361CB69C3610B6A03624B6A436216
:102660008B6A8362CB6AC3620B6B03634B6B4363FE
:102670008B6B8363CB6BC36340304031403ADBD21A
:1026800030320BD30B6803604B6843608B68836008
:10269000CB68C36010301031103AF3D20C3205D33E
:1026A00051F8043B40F8043B043AF9D2043208D014
:1026B000D2071CBF11F8013B00F8013B01D30B8886
:1026C00003806046704700BF082A13D38B07B1D040
:1026D00010F00303AED0C3F10403D21ADB071CBF12
:1026E00011F8013B00F8013BA4D331F8023B20F87C
:1026F000023B9FE7043AD9D3013A11F8013B00F8B5
:10270000013BF9D20B7803704B7843708B78837060
:1027100060467047704700BF704700BF38B5074C30
:102720000023054608462360FDF720FE431C00D029
:1027300038BD2368002BFBD02B6038BDD0080020AB
:10274000024B13B1024800F005B8704700000000CA
:10275000690E0008014600200246034600F026B933
:10276000F8B50C46224F0646FFF7D4FFBB685D68FC
:1027700025F00305291B01F6EF7121F47F6121F09B
:102780000F01A1F58054B4F5805F07DB30460021CE
:10279000FFF7C4FFBB682B44984204D03046FFF7D4
:1027A000BBFF0020F8BD30466142FFF7B7FF0130A4
:1027B0000DD0104BBA6819682D1B45F00105304645
:1027C000091B55601960FFF7A7FF0120F8BD3046CF
:1027D0000021FFF7A3FFBA68831A0F2BDEDD064C3A
:1027E0000449246843F00103001B53600860D5E7E7
:1027F00044040020A80800205008002000294ED0E2
:102800002DE9F0410C468046FFF784FF54F8047C24
:102810006249A4F1080527F00102AB188E685868D8
:102820009E4220F003005AD0FE0758600BD454F8A3
:10283000087C01F1080EED1BAC683A44744567D082
:10284000EF68E760BC601C186468E4070CD4544F60
:102850009C680244BC427CD0D86842F00103E0602E
:1028600084606B60AA5003E042F001036B60AA50E1
:10287000B2F5007F14D2D20801EBC20301244868EC
:10288000921004FA02F29C681043AC60EB6048605E
:102890009D60E5604046BDE8F041FFF73DBF7047F1
:1028A000530A042B47D8930903F13804600001EB65
:1028B000800083683949834243D0596821F003017D
:1028C000914202D99B689842F7D1DA68EA60AB601E
:1028D00040469560DD60BDE8F041FFF71DBFFF0792
:1028E000024407D454F8084C2D1BEB68A868224416
:1028F000C36098602B4B42F001001B6868609A42ED
:102900008D60C7D3284B40461968FFF729FFC1E700
:1029100019184968C90709D4D96802449B6842F06C
:102920000100D9608B606860AA50B3E742F00103F0
:102930006B60AA50AEE7142B14D803F15B0460005F
:10294000B5E74A68A4100120A04002434A601A4635
:10295000BCE742F001034D610D61EC60AC606B605F
:10296000AA5097E7542B04D8130B03F16E046000B0
:102970009DE7B3F5AA7F04D8D30B03F17704600079
:1029800095E740F25450834204D8930C03F17C0441
:1029900060008CE7FC207E2489E700BF440400200F
:1029A0004C0400204C080020A40800202DE9F0472A
:1029B000254C064625688846D5F8484192469946F2
:1029C000C4B360681F2817DC411C76B104EB800398
:1029D000C3F888A0D4F88851012282401543022E02
:1029E000C4F88851C3F808911ED0831C6160002090
:1029F00044F82380BDE8F087144B03B34FF4C8704C
:102A0000FFF77CFB0446D0B1D5F84831002784E8B5
:102A100088003846C5F848410121C4F88871C4F8D7
:102A20008C71002EE1D0D1E7D4F88C311A43C4F870
:102A30008C21DAE705F5A674C5F84841C1E74FF0E7
:102A4000FF30BDE8F08700BFF42A0008FD20000831
:102A5000000000000000000079140008A114000824
:102A600065150008791500088D150008A1150008E6
:102A70000000000000000000E11C0008151D000817
:102A8000C51D0008151E0008291E000800000000D2
:102A90000000000000000000B91E0008F51E00083C
:102AA00048656C6C6F576F726C640000000000002A
:102AB00000000000000000007D200008C920000880
:102AC000C51D0008151E0008291E00080920000861
:102AD000C0FFFFFF00000000C1200008E92000083F
:102AE0001D200008791500088D150008A1150008A3
:0C2AF0004300000018000020000000005F
:102AFC000000000001020304010203040607080998
:102B0C00020406080000000000000000040300207E
:102B1C006C030020D4030020000000000000000023
:102B2C000000000000000000000000000000000099
:102B3C00000000000000000000000000F02A000867
:102B4C000000000000000000000000000000000079
:102B5C000000000000000000000000000000000069
:102B6C000000000000000000000000000000000059
:102B7C000000000000000000000000000000000049
:102B8C000000000000000000000000000000000039
:102B9C000000000000000000000000000000000029
:102BAC000000000000000000000000000000000019
:102BBC0001000000000000000E33CDAB34126DE6B6
:102BCC00ECDE05000B00000000000000000000001F
:102BDC0000000000000000000000000000000000E9
:102BEC0000000000000000000000000000000000D9
:102BFC0000000000000000000000000000000000C9
:102C0C0000000000000000000000000000000000B8
:102F3C0018000020000000000000000044040020E5
:102F4C00440400204C0400204C04002054040020B5
:102F5C00540400205C0400205C0400206404002065
:102F6C00640400206C0400206C0400207404002015
:102F7C00740400207C0400207C04002084040020C5
:102F8C00840400208C0400208C0400209404002075
:102F9C00940400209C0400209C040020A404002025
:102FAC00A4040020AC040020AC040020B4040020D5
:102FBC00B4040020BC040020BC040020C404002085
:102FCC00C4040020CC040020CC040020D404002035
:102FDC00D4040020DC040020DC040020E4040020E5
:102FEC00E4040020EC040020EC040020F404002095
:102FFC00F4040020FC040020FC0400200405002044
:10300C00040500200C0500200C05002014050020F0
:10301C00140500201C0500201C05002024050020A0
:10302C00240500202C0500202C0500203405002050
:10303C00340500203C0500203C0500204405002000
:10304C00440500204C0500204C05002054050020B0
:10305C00540500205C0500205C0500206405002060
:10306C00640500206C0500206C0500207405002010
:10307C00740500207C0500207C05002084050020C0
:10308C00840500208C0500208C0500209405002070
:10309C00940500209C0500209C050020A405002020
:1030AC00A4050020AC050020AC050020B4050020D0
:1030BC00B4050020BC050020BC050020C405002080
:1030CC00C4050020CC050020CC050020D405002030
:1030DC00D4050020DC050020DC050020E4050020E0
:1030EC00E4050020EC050020EC050020F405002090
:1030FC00F4050020FC050020FC050020040600203F
:10310C00040600200C0600200C06002014060020EB
:10311C00140600201C0600201C060020240600209B
:10312C00240600202C0600202C060020340600204B
:10313C00340600203C0600203C06002044060020FB
:10314C00440600204C0600204C06002054060020AB
:10315C00540600205C0600205C060020640600205B
:10316C00640600206C0600206C060020740600200B
:10317C00740600207C0600207C06002084060020BB
:10318C00840600208C0600208C060020940600206B
:10319C00940600209C0600209C060020A40600201B
:1031AC00A4060020AC060020AC060020B4060020CB
:1031BC00B4060020BC060020BC060020C40600207B
:1031CC00C4060020CC060020CC060020D40600202B
:1031DC00D4060020DC060020DC060020E4060020DB
:1031EC00E4060020EC060020EC060020F40600208B
:1031FC00F4060020FC060020FC060020040700203A
:10320C00040700200C0700200C07002014070020E6
:10321C00140700201C0700201C0700202407002096
:10322C00240700202C0700202C0700203407002046
:10323C00340700203C0700203C07002044070020F6
:10324C00440700204C0700204C07002054070020A6
:10325C00540700205C0700205C0700206407002056
:10326C00640700206C0700206C0700207407002006
:10327C00740700207C0700207C07002084070020B6
:10328C00840700208C0700208C0700209407002066
:10329C00940700209C0700209C070020A407002016
:1032AC00A4070020AC070020AC070020B4070020C6
:1032BC00B4070020BC070020BC070020C407002076
:1032CC00C4070020CC070020CC070020D407002026
:1032DC00D4070020DC070020DC070020E4070020D6
:1032EC00E4070020EC070020EC070020F407002086
:1032FC00F4070020FC070020FC0700200408002035
:10330C00040800200C0800200C08002014080020E1
:10331C00140800201C0800201C0800202408002091
:10332C00240800202C0800202C0800203408002041
:10333C00340800203C0800203C080020000002005B
:04334C00FFFFFFFF81
:04000005080001E509
:00000001FF
